{
  "_format": "hh-sol-artifact-1",
  "contractName": "TomBank",
  "sourceName": "contracts/TomBank.sol",
  "abi": [
    {
      "inputs": [],
      "stateMutability": "nonpayable",
      "type": "constructor"
    },
    {
      "anonymous": false,
      "inputs": [
        {
          "indexed": false,
          "internalType": "address",
          "name": "",
          "type": "address"
        },
        {
          "indexed": false,
          "internalType": "uint256",
          "name": "",
          "type": "uint256"
        }
      ],
      "name": "Received",
      "type": "event"
    },
    {
      "anonymous": false,
      "inputs": [
        {
          "indexed": false,
          "internalType": "address",
          "name": "from",
          "type": "address"
        },
        {
          "indexed": false,
          "internalType": "address",
          "name": "_to",
          "type": "address"
        },
        {
          "indexed": false,
          "internalType": "uint256",
          "name": "_amount",
          "type": "uint256"
        }
      ],
      "name": "Sent",
      "type": "event"
    },
    {
      "inputs": [
        {
          "internalType": "address",
          "name": "",
          "type": "address"
        }
      ],
      "name": "balanceReceived",
      "outputs": [
        {
          "internalType": "uint256",
          "name": "totalBalance",
          "type": "uint256"
        },
        {
          "internalType": "uint256",
          "name": "numPayments",
          "type": "uint256"
        }
      ],
      "stateMutability": "view",
      "type": "function"
    },
    {
      "inputs": [],
      "name": "getBalance",
      "outputs": [
        {
          "internalType": "uint256",
          "name": "",
          "type": "uint256"
        }
      ],
      "stateMutability": "view",
      "type": "function"
    },
    {
      "inputs": [],
      "name": "owner",
      "outputs": [
        {
          "internalType": "address",
          "name": "",
          "type": "address"
        }
      ],
      "stateMutability": "view",
      "type": "function"
    },
    {
      "inputs": [],
      "name": "sendMoney",
      "outputs": [],
      "stateMutability": "payable",
      "type": "function"
    },
    {
      "inputs": [
        {
          "internalType": "address payable",
          "name": "_to",
          "type": "address"
        },
        {
          "internalType": "uint256",
          "name": "_amount",
          "type": "uint256"
        }
      ],
      "name": "withdrawMoney",
      "outputs": [],
      "stateMutability": "nonpayable",
      "type": "function"
    }
  ],
  "bytecode": "0x608060405234801561001057600080fd5b5033600160006101000a81548173ffffffffffffffffffffffffffffffffffffffff021916908373ffffffffffffffffffffffffffffffffffffffff16021790555061087b806100616000396000f3fe60806040526004361061004a5760003560e01c806312065fe01461004f5780638da5cb5b1461007a578063cbedbf5a146100a5578063d18a42e1146100af578063f274c897146100ed575b600080fd5b34801561005b57600080fd5b50610064610116565b6040516100719190610625565b60405180910390f35b34801561008657600080fd5b5061008f61011e565b60405161009c919061058a565b60405180910390f35b6100ad610144565b005b3480156100bb57600080fd5b506100d660048036038101906100d191906104b8565b6102f3565b6040516100e4929190610640565b60405180910390f35b3480156100f957600080fd5b50610114600480360381019061010f91906104e1565b610317565b005b600047905090565b600160009054906101000a900473ffffffffffffffffffffffffffffffffffffffff1681565b346000803373ffffffffffffffffffffffffffffffffffffffff1673ffffffffffffffffffffffffffffffffffffffff1681526020019081526020016000206000016000828254610195919061067a565b9250508190555060006040518060400160405280348152602001428152509050806000803373ffffffffffffffffffffffffffffffffffffffff1673ffffffffffffffffffffffffffffffffffffffff16815260200190815260200160002060020160008060003373ffffffffffffffffffffffffffffffffffffffff1673ffffffffffffffffffffffffffffffffffffffff16815260200190815260200160002060010154815260200190815260200160002060008201518160000155602082015181600101559050506000803373ffffffffffffffffffffffffffffffffffffffff1673ffffffffffffffffffffffffffffffffffffffff16815260200190815260200160002060010160008154809291906102b290610788565b91905055507f88a5966d370b9919b20f3e2c13ff65706f196a4e32cc2c12bf57088f8852587433346040516102e89291906105dc565b60405180910390a150565b60006020528060005260406000206000915090508060000154908060010154905082565b806000803373ffffffffffffffffffffffffffffffffffffffff1673ffffffffffffffffffffffffffffffffffffffff16815260200190815260200160002060000154101561039b576040517f08c379a000000000000000000000000000000000000000000000000000000000815260040161039290610605565b60405180910390fd5b806000803373ffffffffffffffffffffffffffffffffffffffff1673ffffffffffffffffffffffffffffffffffffffff16815260200190815260200160002060000160008282546103ec91906106d0565b925050819055508173ffffffffffffffffffffffffffffffffffffffff166108fc829081150290604051600060405180830381858888f19350505050158015610439573d6000803e3d6000fd5b507f3990db2d31862302a685e8086b5755072a6e2b5b780af1ee81ece35ee3cd334533838360405161046d939291906105a5565b60405180910390a15050565b60008135905061048881610800565b92915050565b60008135905061049d81610817565b92915050565b6000813590506104b28161082e565b92915050565b6000602082840312156104ca57600080fd5b60006104d884828501610479565b91505092915050565b600080604083850312156104f457600080fd5b60006105028582860161048e565b9250506020610513858286016104a3565b9150509250929050565b61052681610752565b82525050565b61053581610704565b82525050565b6000610548601283610669565b91507f496e73756666696369656e742066756e647300000000000000000000000000006000830152602082019050919050565b61058481610748565b82525050565b600060208201905061059f600083018461052c565b92915050565b60006060820190506105ba600083018661052c565b6105c7602083018561051d565b6105d4604083018461057b565b949350505050565b60006040820190506105f1600083018561052c565b6105fe602083018461057b565b9392505050565b6000602082019050818103600083015261061e8161053b565b9050919050565b600060208201905061063a600083018461057b565b92915050565b6000604082019050610655600083018561057b565b610662602083018461057b565b9392505050565b600082825260208201905092915050565b600061068582610748565b915061069083610748565b9250827fffffffffffffffffffffffffffffffffffffffffffffffffffffffffffffffff038211156106c5576106c46107d1565b5b828201905092915050565b60006106db82610748565b91506106e683610748565b9250828210156106f9576106f86107d1565b5b828203905092915050565b600061070f82610728565b9050919050565b600061072182610728565b9050919050565b600073ffffffffffffffffffffffffffffffffffffffff82169050919050565b6000819050919050565b600061075d82610764565b9050919050565b600061076f82610776565b9050919050565b600061078182610728565b9050919050565b600061079382610748565b91507fffffffffffffffffffffffffffffffffffffffffffffffffffffffffffffffff8214156107c6576107c56107d1565b5b600182019050919050565b7f4e487b7100000000000000000000000000000000000000000000000000000000600052601160045260246000fd5b61080981610704565b811461081457600080fd5b50565b61082081610716565b811461082b57600080fd5b50565b61083781610748565b811461084257600080fd5b5056fea264697066735822122084339bdba068ef73531104d0cf996a99fb092ff56407dc85be564e15456ce81464736f6c63430008000033",
  "linkReferences": {},
  "deployedLinkReferences": {}
}